{
  "contractName": "ArtToken",
  "abi": [
    {
      "inputs": [
        {
          "internalType": "string",
          "name": "name",
          "type": "string"
        },
        {
          "internalType": "string",
          "name": "symbol",
          "type": "string"
        }
      ],
      "stateMutability": "nonpayable",
      "type": "constructor"
    },
    {
      "anonymous": false,
      "inputs": [
        {
          "indexed": true,
          "internalType": "address",
          "name": "owner",
          "type": "address"
        },
        {
          "indexed": true,
          "internalType": "address",
          "name": "approved",
          "type": "address"
        },
        {
          "indexed": true,
          "internalType": "uint256",
          "name": "tokenId",
          "type": "uint256"
        }
      ],
      "name": "Approval",
      "type": "event"
    },
    {
      "anonymous": false,
      "inputs": [
        {
          "indexed": true,
          "internalType": "address",
          "name": "owner",
          "type": "address"
        },
        {
          "indexed": true,
          "internalType": "address",
          "name": "operator",
          "type": "address"
        },
        {
          "indexed": false,
          "internalType": "bool",
          "name": "approved",
          "type": "bool"
        }
      ],
      "name": "ApprovalForAll",
      "type": "event"
    },
    {
      "anonymous": false,
      "inputs": [
        {
          "indexed": true,
          "internalType": "address",
          "name": "previousOwner",
          "type": "address"
        },
        {
          "indexed": true,
          "internalType": "address",
          "name": "newOwner",
          "type": "address"
        }
      ],
      "name": "OwnershipTransferred",
      "type": "event"
    },
    {
      "anonymous": false,
      "inputs": [
        {
          "indexed": true,
          "internalType": "address",
          "name": "from",
          "type": "address"
        },
        {
          "indexed": true,
          "internalType": "address",
          "name": "to",
          "type": "address"
        },
        {
          "indexed": true,
          "internalType": "uint256",
          "name": "tokenId",
          "type": "uint256"
        }
      ],
      "name": "Transfer",
      "type": "event"
    },
    {
      "inputs": [
        {
          "internalType": "address",
          "name": "to",
          "type": "address"
        },
        {
          "internalType": "uint256",
          "name": "tokenId",
          "type": "uint256"
        }
      ],
      "name": "approve",
      "outputs": [],
      "stateMutability": "nonpayable",
      "type": "function"
    },
    {
      "inputs": [
        {
          "internalType": "address",
          "name": "owner",
          "type": "address"
        }
      ],
      "name": "balanceOf",
      "outputs": [
        {
          "internalType": "uint256",
          "name": "",
          "type": "uint256"
        }
      ],
      "stateMutability": "view",
      "type": "function"
    },
    {
      "inputs": [
        {
          "internalType": "uint256",
          "name": "tokenId",
          "type": "uint256"
        }
      ],
      "name": "getApproved",
      "outputs": [
        {
          "internalType": "address",
          "name": "",
          "type": "address"
        }
      ],
      "stateMutability": "view",
      "type": "function"
    },
    {
      "inputs": [
        {
          "internalType": "address",
          "name": "owner",
          "type": "address"
        },
        {
          "internalType": "address",
          "name": "operator",
          "type": "address"
        }
      ],
      "name": "isApprovedForAll",
      "outputs": [
        {
          "internalType": "bool",
          "name": "",
          "type": "bool"
        }
      ],
      "stateMutability": "view",
      "type": "function"
    },
    {
      "inputs": [],
      "name": "name",
      "outputs": [
        {
          "internalType": "string",
          "name": "",
          "type": "string"
        }
      ],
      "stateMutability": "view",
      "type": "function"
    },
    {
      "inputs": [],
      "name": "owner",
      "outputs": [
        {
          "internalType": "address",
          "name": "",
          "type": "address"
        }
      ],
      "stateMutability": "view",
      "type": "function"
    },
    {
      "inputs": [
        {
          "internalType": "uint256",
          "name": "tokenId",
          "type": "uint256"
        }
      ],
      "name": "ownerOf",
      "outputs": [
        {
          "internalType": "address",
          "name": "",
          "type": "address"
        }
      ],
      "stateMutability": "view",
      "type": "function"
    },
    {
      "inputs": [],
      "name": "renounceOwnership",
      "outputs": [],
      "stateMutability": "nonpayable",
      "type": "function"
    },
    {
      "inputs": [
        {
          "internalType": "address",
          "name": "from",
          "type": "address"
        },
        {
          "internalType": "address",
          "name": "to",
          "type": "address"
        },
        {
          "internalType": "uint256",
          "name": "tokenId",
          "type": "uint256"
        }
      ],
      "name": "safeTransferFrom",
      "outputs": [],
      "stateMutability": "nonpayable",
      "type": "function"
    },
    {
      "inputs": [
        {
          "internalType": "address",
          "name": "from",
          "type": "address"
        },
        {
          "internalType": "address",
          "name": "to",
          "type": "address"
        },
        {
          "internalType": "uint256",
          "name": "tokenId",
          "type": "uint256"
        },
        {
          "internalType": "bytes",
          "name": "_data",
          "type": "bytes"
        }
      ],
      "name": "safeTransferFrom",
      "outputs": [],
      "stateMutability": "nonpayable",
      "type": "function"
    },
    {
      "inputs": [
        {
          "internalType": "address",
          "name": "operator",
          "type": "address"
        },
        {
          "internalType": "bool",
          "name": "approved",
          "type": "bool"
        }
      ],
      "name": "setApprovalForAll",
      "outputs": [],
      "stateMutability": "nonpayable",
      "type": "function"
    },
    {
      "inputs": [
        {
          "internalType": "bytes4",
          "name": "interfaceId",
          "type": "bytes4"
        }
      ],
      "name": "supportsInterface",
      "outputs": [
        {
          "internalType": "bool",
          "name": "",
          "type": "bool"
        }
      ],
      "stateMutability": "view",
      "type": "function"
    },
    {
      "inputs": [],
      "name": "symbol",
      "outputs": [
        {
          "internalType": "string",
          "name": "",
          "type": "string"
        }
      ],
      "stateMutability": "view",
      "type": "function"
    },
    {
      "inputs": [
        {
          "internalType": "uint256",
          "name": "tokenId",
          "type": "uint256"
        }
      ],
      "name": "tokenURI",
      "outputs": [
        {
          "internalType": "string",
          "name": "",
          "type": "string"
        }
      ],
      "stateMutability": "view",
      "type": "function"
    },
    {
      "inputs": [
        {
          "internalType": "address",
          "name": "from",
          "type": "address"
        },
        {
          "internalType": "address",
          "name": "to",
          "type": "address"
        },
        {
          "internalType": "uint256",
          "name": "tokenId",
          "type": "uint256"
        }
      ],
      "name": "transferFrom",
      "outputs": [],
      "stateMutability": "nonpayable",
      "type": "function"
    },
    {
      "inputs": [
        {
          "internalType": "address",
          "name": "newOwner",
          "type": "address"
        }
      ],
      "name": "transferOwnership",
      "outputs": [],
      "stateMutability": "nonpayable",
      "type": "function"
    },
    {
      "inputs": [
        {
          "internalType": "uint256",
          "name": "_tokenId",
          "type": "uint256"
        }
      ],
      "name": "getTokenDetail",
      "outputs": [
        {
          "components": [
            {
              "internalType": "string",
              "name": "link",
              "type": "string"
            }
          ],
          "internalType": "struct ArtToken.Art",
          "name": "",
          "type": "tuple"
        }
      ],
      "stateMutability": "view",
      "type": "function"
    },
    {
      "inputs": [
        {
          "internalType": "string",
          "name": "_link",
          "type": "string"
        }
      ],
      "name": "mint",
      "outputs": [],
      "stateMutability": "nonpayable",
      "type": "function"
    }
  ],
  "bytecode": "0x608060405260006007553480156200001657600080fd5b506040516200322c3803806200322c83398181016040528101906200003c91906200028a565b818181600090805190602001906200005692919062000168565b5080600190805190602001906200006f92919062000168565b50505062000092620000866200009a60201b60201c565b620000a260201b60201c565b50506200042e565b600033905090565b6000600660009054906101000a900473ffffffffffffffffffffffffffffffffffffffff16905081600660006101000a81548173ffffffffffffffffffffffffffffffffffffffff021916908373ffffffffffffffffffffffffffffffffffffffff1602179055508173ffffffffffffffffffffffffffffffffffffffff168173ffffffffffffffffffffffffffffffffffffffff167f8be0079c531659141344cd1fd0a4f28419497f9722a3daafe3b4186f6b6457e060405160405180910390a35050565b82805462000176906200039a565b90600052602060002090601f0160209004810192826200019a5760008555620001e6565b82601f10620001b557805160ff1916838001178555620001e6565b82800160010185558215620001e6579182015b82811115620001e5578251825591602001919060010190620001c8565b5b509050620001f59190620001f9565b5090565b5b8082111562000214576000816000905550600101620001fa565b5090565b60006200022f620002298462000331565b620002fd565b9050828152602081018484840111156200024857600080fd5b6200025584828562000364565b509392505050565b600082601f8301126200026f57600080fd5b81516200028184826020860162000218565b91505092915050565b600080604083850312156200029e57600080fd5b600083015167ffffffffffffffff811115620002b957600080fd5b620002c7858286016200025d565b925050602083015167ffffffffffffffff811115620002e557600080fd5b620002f3858286016200025d565b9150509250929050565b6000604051905081810181811067ffffffffffffffff82111715620003275762000326620003ff565b5b8060405250919050565b600067ffffffffffffffff8211156200034f576200034e620003ff565b5b601f19601f8301169050602081019050919050565b60005b838110156200038457808201518184015260208101905062000367565b8381111562000394576000848401525b50505050565b60006002820490506001821680620003b357607f821691505b60208210811415620003ca57620003c9620003d0565b5b50919050565b7f4e487b7100000000000000000000000000000000000000000000000000000000600052602260045260246000fd5b7f4e487b7100000000000000000000000000000000000000000000000000000000600052604160045260246000fd5b612dee806200043e6000396000f3fe608060405234801561001057600080fd5b50600436106101165760003560e01c80638da5cb5b116100a2578063c0bcc07a11610071578063c0bcc07a146102cb578063c87b56dd146102fb578063d85d3d271461032b578063e985e9c514610347578063f2fde38b1461037757610116565b80638da5cb5b1461025757806395d89b4114610275578063a22cb46514610293578063b88d4fde146102af57610116565b806323b872dd116100e957806323b872dd146101b557806342842e0e146101d15780636352211e146101ed57806370a082311461021d578063715018a61461024d57610116565b806301ffc9a71461011b57806306fdde031461014b578063081812fc14610169578063095ea7b314610199575b600080fd5b61013560048036038101906101309190611ed1565b610393565b6040516101429190612713565b60405180910390f35b610153610475565b604051610160919061272e565b60405180910390f35b610183600480360381019061017e9190611f64565b610507565b60405161019091906126ac565b60405180910390f35b6101b360048036038101906101ae9190611e95565b61058c565b005b6101cf60048036038101906101ca9190611d8f565b6106a4565b005b6101eb60048036038101906101e69190611d8f565b610704565b005b61020760048036038101906102029190611f64565b610724565b60405161021491906126ac565b60405180910390f35b61023760048036038101906102329190611d2a565b6107d6565b6040516102449190612972565b60405180910390f35b61025561088e565b005b61025f610916565b60405161026c91906126ac565b60405180910390f35b61027d610940565b60405161028a919061272e565b60405180910390f35b6102ad60048036038101906102a89190611e59565b6109d2565b005b6102c960048036038101906102c49190611dde565b610b53565b005b6102e560048036038101906102e09190611f64565b610bb5565b6040516102f29190612950565b60405180910390f35b61031560048036038101906103109190611f64565b610c74565b604051610322919061272e565b60405180910390f35b61034560048036038101906103409190611f23565b610d1b565b005b610361600480360381019061035c9190611d53565b610e02565b60405161036e9190612713565b60405180910390f35b610391600480360381019061038c9190611d2a565b610e96565b005b60007f80ac58cd000000000000000000000000000000000000000000000000000000007bffffffffffffffffffffffffffffffffffffffffffffffffffffffff1916827bffffffffffffffffffffffffffffffffffffffffffffffffffffffff1916148061045e57507f5b5e139f000000000000000000000000000000000000000000000000000000007bffffffffffffffffffffffffffffffffffffffffffffffffffffffff1916827bffffffffffffffffffffffffffffffffffffffffffffffffffffffff1916145b8061046e575061046d82610f8e565b5b9050919050565b60606000805461048490612be3565b80601f01602080910402602001604051908101604052809291908181526020018280546104b090612be3565b80156104fd5780601f106104d2576101008083540402835291602001916104fd565b820191906000526020600020905b8154815290600101906020018083116104e057829003601f168201915b5050505050905090565b600061051282610ff8565b610551576040517f08c379a000000000000000000000000000000000000000000000000000000000815260040161054890612890565b60405180910390fd5b6004600083815260200190815260200160002060009054906101000a900473ffffffffffffffffffffffffffffffffffffffff169050919050565b600061059782610724565b90508073ffffffffffffffffffffffffffffffffffffffff168373ffffffffffffffffffffffffffffffffffffffff161415610608576040517f08c379a00000000000000000000000000000000000000000000000000000000081526004016105ff90612910565b60405180910390fd5b8073ffffffffffffffffffffffffffffffffffffffff16610627611064565b73ffffffffffffffffffffffffffffffffffffffff161480610656575061065581610650611064565b610e02565b5b610695576040517f08c379a000000000000000000000000000000000000000000000000000000000815260040161068c90612810565b60405180910390fd5b61069f838361106c565b505050565b6106b56106af611064565b82611125565b6106f4576040517f08c379a00000000000000000000000000000000000000000000000000000000081526004016106eb90612930565b60405180910390fd5b6106ff838383611203565b505050565b61071f83838360405180602001604052806000815250610b53565b505050565b6000806002600084815260200190815260200160002060009054906101000a900473ffffffffffffffffffffffffffffffffffffffff169050600073ffffffffffffffffffffffffffffffffffffffff168173ffffffffffffffffffffffffffffffffffffffff1614156107cd576040517f08c379a00000000000000000000000000000000000000000000000000000000081526004016107c490612850565b60405180910390fd5b80915050919050565b60008073ffffffffffffffffffffffffffffffffffffffff168273ffffffffffffffffffffffffffffffffffffffff161415610847576040517f08c379a000000000000000000000000000000000000000000000000000000000815260040161083e90612830565b60405180910390fd5b600360008373ffffffffffffffffffffffffffffffffffffffff1673ffffffffffffffffffffffffffffffffffffffff168152602001908152602001600020549050919050565b610896611064565b73ffffffffffffffffffffffffffffffffffffffff166108b4610916565b73ffffffffffffffffffffffffffffffffffffffff161461090a576040517f08c379a0000000000000000000000000000000000000000000000000000000008152600401610901906128b0565b60405180910390fd5b610914600061145f565b565b6000600660009054906101000a900473ffffffffffffffffffffffffffffffffffffffff16905090565b60606001805461094f90612be3565b80601f016020809104026020016040519081016040528092919081815260200182805461097b90612be3565b80156109c85780601f1061099d576101008083540402835291602001916109c8565b820191906000526020600020905b8154815290600101906020018083116109ab57829003601f168201915b5050505050905090565b6109da611064565b73ffffffffffffffffffffffffffffffffffffffff168273ffffffffffffffffffffffffffffffffffffffff161415610a48576040517f08c379a0000000000000000000000000000000000000000000000000000000008152600401610a3f906127d0565b60405180910390fd5b8060056000610a55611064565b73ffffffffffffffffffffffffffffffffffffffff1673ffffffffffffffffffffffffffffffffffffffff16815260200190815260200160002060008473ffffffffffffffffffffffffffffffffffffffff1673ffffffffffffffffffffffffffffffffffffffff16815260200190815260200160002060006101000a81548160ff0219169083151502179055508173ffffffffffffffffffffffffffffffffffffffff16610b02611064565b73ffffffffffffffffffffffffffffffffffffffff167f17307eab39ab6107e8899845ad3d59bd9653f200f220920489ca2b5937696c3183604051610b479190612713565b60405180910390a35050565b610b64610b5e611064565b83611125565b610ba3576040517f08c379a0000000000000000000000000000000000000000000000000000000008152600401610b9a90612930565b60405180910390fd5b610baf84848484611525565b50505050565b610bbd611b3b565b60086000838152602001908152602001600020604051806020016040529081600082018054610beb90612be3565b80601f0160208091040260200160405190810160405280929190818152602001828054610c1790612be3565b8015610c645780601f10610c3957610100808354040283529160200191610c64565b820191906000526020600020905b815481529060010190602001808311610c4757829003601f168201915b5050505050815250509050919050565b6060610c7f82610ff8565b610cbe576040517f08c379a0000000000000000000000000000000000000000000000000000000008152600401610cb5906128f0565b60405180910390fd5b6000610cc8611581565b90506000815111610ce85760405180602001604052806000815250610d13565b80610cf284611598565b604051602001610d03929190612688565b6040516020818303038152906040525b915050919050565b610d23611064565b73ffffffffffffffffffffffffffffffffffffffff16610d41610916565b73ffffffffffffffffffffffffffffffffffffffff1614610d97576040517f08c379a0000000000000000000000000000000000000000000000000000000008152600401610d8e906128b0565b60405180910390fd5b6040518060200160405280828152506008600060075481526020019081526020016000206000820151816000019080519060200190610dd7929190611b4e565b50905050610de733600754611745565b60076000815480929190610dfa90612c15565b919050555050565b6000600560008473ffffffffffffffffffffffffffffffffffffffff1673ffffffffffffffffffffffffffffffffffffffff16815260200190815260200160002060008373ffffffffffffffffffffffffffffffffffffffff1673ffffffffffffffffffffffffffffffffffffffff16815260200190815260200160002060009054906101000a900460ff16905092915050565b610e9e611064565b73ffffffffffffffffffffffffffffffffffffffff16610ebc610916565b73ffffffffffffffffffffffffffffffffffffffff1614610f12576040517f08c379a0000000000000000000000000000000000000000000000000000000008152600401610f09906128b0565b60405180910390fd5b600073ffffffffffffffffffffffffffffffffffffffff168173ffffffffffffffffffffffffffffffffffffffff161415610f82576040517f08c379a0000000000000000000000000000000000000000000000000000000008152600401610f7990612770565b60405180910390fd5b610f8b8161145f565b50565b60007f01ffc9a7000000000000000000000000000000000000000000000000000000007bffffffffffffffffffffffffffffffffffffffffffffffffffffffff1916827bffffffffffffffffffffffffffffffffffffffffffffffffffffffff1916149050919050565b60008073ffffffffffffffffffffffffffffffffffffffff166002600084815260200190815260200160002060009054906101000a900473ffffffffffffffffffffffffffffffffffffffff1673ffffffffffffffffffffffffffffffffffffffff1614159050919050565b600033905090565b816004600083815260200190815260200160002060006101000a81548173ffffffffffffffffffffffffffffffffffffffff021916908373ffffffffffffffffffffffffffffffffffffffff160217905550808273ffffffffffffffffffffffffffffffffffffffff166110df83610724565b73ffffffffffffffffffffffffffffffffffffffff167f8c5be1e5ebec7d5bd14f71427d1e84f3dd0314c0f7b2291e5b200ac8c7c3b92560405160405180910390a45050565b600061113082610ff8565b61116f576040517f08c379a0000000000000000000000000000000000000000000000000000000008152600401611166906127f0565b60405180910390fd5b600061117a83610724565b90508073ffffffffffffffffffffffffffffffffffffffff168473ffffffffffffffffffffffffffffffffffffffff1614806111e957508373ffffffffffffffffffffffffffffffffffffffff166111d184610507565b73ffffffffffffffffffffffffffffffffffffffff16145b806111fa57506111f98185610e02565b5b91505092915050565b8273ffffffffffffffffffffffffffffffffffffffff1661122382610724565b73ffffffffffffffffffffffffffffffffffffffff1614611279576040517f08c379a0000000000000000000000000000000000000000000000000000000008152600401611270906128d0565b60405180910390fd5b600073ffffffffffffffffffffffffffffffffffffffff168273ffffffffffffffffffffffffffffffffffffffff1614156112e9576040517f08c379a00000000000000000000000000000000000000000000000000000000081526004016112e0906127b0565b60405180910390fd5b6112f4838383611763565b6112ff60008261106c565b6001600360008573ffffffffffffffffffffffffffffffffffffffff1673ffffffffffffffffffffffffffffffffffffffff168152602001908152602001600020600082825461134f9190612af9565b925050819055506001600360008473ffffffffffffffffffffffffffffffffffffffff1673ffffffffffffffffffffffffffffffffffffffff16815260200190815260200160002060008282546113a69190612a72565b92505081905550816002600083815260200190815260200160002060006101000a81548173ffffffffffffffffffffffffffffffffffffffff021916908373ffffffffffffffffffffffffffffffffffffffff160217905550808273ffffffffffffffffffffffffffffffffffffffff168473ffffffffffffffffffffffffffffffffffffffff167fddf252ad1be2c89b69c2b068fc378daa952ba7f163c4a11628f55a4df523b3ef60405160405180910390a4505050565b6000600660009054906101000a900473ffffffffffffffffffffffffffffffffffffffff16905081600660006101000a81548173ffffffffffffffffffffffffffffffffffffffff021916908373ffffffffffffffffffffffffffffffffffffffff1602179055508173ffffffffffffffffffffffffffffffffffffffff168173ffffffffffffffffffffffffffffffffffffffff167f8be0079c531659141344cd1fd0a4f28419497f9722a3daafe3b4186f6b6457e060405160405180910390a35050565b611530848484611203565b61153c84848484611768565b61157b576040517f08c379a000000000000000000000000000000000000000000000000000000000815260040161157290612750565b60405180910390fd5b50505050565b606060405180602001604052806000815250905090565b606060008214156115e0576040518060400160405280600181526020017f30000000000000000000000000000000000000000000000000000000000000008152509050611740565b600082905060005b600082146116125780806115fb90612c15565b915050600a8261160b9190612ac8565b91506115e8565b60008167ffffffffffffffff811115611654577f4e487b7100000000000000000000000000000000000000000000000000000000600052604160045260246000fd5b6040519080825280601f01601f1916602001820160405280156116865781602001600182028036833780820191505090505b5090505b600085146117395760018261169f9190612af9565b9150600a856116ae9190612c5e565b60306116ba9190612a72565b60f81b8183815181106116f6577f4e487b7100000000000000000000000000000000000000000000000000000000600052603260045260246000fd5b60200101907effffffffffffffffffffffffffffffffffffffffffffffffffffffffffffff1916908160001a905350600a856117329190612ac8565b945061168a565b8093505050505b919050565b61175f8282604051806020016040528060008152506118ff565b5050565b505050565b60006117898473ffffffffffffffffffffffffffffffffffffffff1661195a565b156118f2578373ffffffffffffffffffffffffffffffffffffffff1663150b7a026117b2611064565b8786866040518563ffffffff1660e01b81526004016117d494939291906126c7565b602060405180830381600087803b1580156117ee57600080fd5b505af192505050801561181f57506040513d601f19601f8201168201806040525081019061181c9190611efa565b60015b6118a2573d806000811461184f576040519150601f19603f3d011682016040523d82523d6000602084013e611854565b606091505b5060008151141561189a576040517f08c379a000000000000000000000000000000000000000000000000000000000815260040161189190612750565b60405180910390fd5b805181602001fd5b63150b7a0260e01b7bffffffffffffffffffffffffffffffffffffffffffffffffffffffff1916817bffffffffffffffffffffffffffffffffffffffffffffffffffffffff1916149150506118f7565b600190505b949350505050565b611909838361196d565b6119166000848484611768565b611955576040517f08c379a000000000000000000000000000000000000000000000000000000000815260040161194c90612750565b60405180910390fd5b505050565b600080823b905060008111915050919050565b600073ffffffffffffffffffffffffffffffffffffffff168273ffffffffffffffffffffffffffffffffffffffff1614156119dd576040517f08c379a00000000000000000000000000000000000000000000000000000000081526004016119d490612870565b60405180910390fd5b6119e681610ff8565b15611a26576040517f08c379a0000000000000000000000000000000000000000000000000000000008152600401611a1d90612790565b60405180910390fd5b611a3260008383611763565b6001600360008473ffffffffffffffffffffffffffffffffffffffff1673ffffffffffffffffffffffffffffffffffffffff1681526020019081526020016000206000828254611a829190612a72565b92505081905550816002600083815260200190815260200160002060006101000a81548173ffffffffffffffffffffffffffffffffffffffff021916908373ffffffffffffffffffffffffffffffffffffffff160217905550808273ffffffffffffffffffffffffffffffffffffffff16600073ffffffffffffffffffffffffffffffffffffffff167fddf252ad1be2c89b69c2b068fc378daa952ba7f163c4a11628f55a4df523b3ef60405160405180910390a45050565b6040518060200160405280606081525090565b828054611b5a90612be3565b90600052602060002090601f016020900481019282611b7c5760008555611bc3565b82601f10611b9557805160ff1916838001178555611bc3565b82800160010185558215611bc3579182015b82811115611bc2578251825591602001919060010190611ba7565b5b509050611bd09190611bd4565b5090565b5b80821115611bed576000816000905550600101611bd5565b5090565b6000611c04611bff846129be565b61298d565b905082815260208101848484011115611c1c57600080fd5b611c27848285612ba1565b509392505050565b6000611c42611c3d846129ee565b61298d565b905082815260208101848484011115611c5a57600080fd5b611c65848285612ba1565b509392505050565b600081359050611c7c81612d5c565b92915050565b600081359050611c9181612d73565b92915050565b600081359050611ca681612d8a565b92915050565b600081519050611cbb81612d8a565b92915050565b600082601f830112611cd257600080fd5b8135611ce2848260208601611bf1565b91505092915050565b600082601f830112611cfc57600080fd5b8135611d0c848260208601611c2f565b91505092915050565b600081359050611d2481612da1565b92915050565b600060208284031215611d3c57600080fd5b6000611d4a84828501611c6d565b91505092915050565b60008060408385031215611d6657600080fd5b6000611d7485828601611c6d565b9250506020611d8585828601611c6d565b9150509250929050565b600080600060608486031215611da457600080fd5b6000611db286828701611c6d565b9350506020611dc386828701611c6d565b9250506040611dd486828701611d15565b9150509250925092565b60008060008060808587031215611df457600080fd5b6000611e0287828801611c6d565b9450506020611e1387828801611c6d565b9350506040611e2487828801611d15565b925050606085013567ffffffffffffffff811115611e4157600080fd5b611e4d87828801611cc1565b91505092959194509250565b60008060408385031215611e6c57600080fd5b6000611e7a85828601611c6d565b9250506020611e8b85828601611c82565b9150509250929050565b60008060408385031215611ea857600080fd5b6000611eb685828601611c6d565b9250506020611ec785828601611d15565b9150509250929050565b600060208284031215611ee357600080fd5b6000611ef184828501611c97565b91505092915050565b600060208284031215611f0c57600080fd5b6000611f1a84828501611cac565b91505092915050565b600060208284031215611f3557600080fd5b600082013567ffffffffffffffff811115611f4f57600080fd5b611f5b84828501611ceb565b91505092915050565b600060208284031215611f7657600080fd5b6000611f8484828501611d15565b91505092915050565b611f9681612b2d565b82525050565b611fa581612b3f565b82525050565b6000611fb682612a1e565b611fc08185612a34565b9350611fd0818560208601612bb0565b611fd981612d4b565b840191505092915050565b6000611fef82612a29565b611ff98185612a45565b9350612009818560208601612bb0565b61201281612d4b565b840191505092915050565b600061202882612a29565b6120328185612a56565b9350612042818560208601612bb0565b61204b81612d4b565b840191505092915050565b600061206182612a29565b61206b8185612a67565b935061207b818560208601612bb0565b80840191505092915050565b6000612094603283612a56565b91507f4552433732313a207472616e7366657220746f206e6f6e20455243373231526560008301527f63656976657220696d706c656d656e74657200000000000000000000000000006020830152604082019050919050565b60006120fa602683612a56565b91507f4f776e61626c653a206e6577206f776e657220697320746865207a65726f206160008301527f64647265737300000000000000000000000000000000000000000000000000006020830152604082019050919050565b6000612160601c83612a56565b91507f4552433732313a20746f6b656e20616c7265616479206d696e746564000000006000830152602082019050919050565b60006121a0602483612a56565b91507f4552433732313a207472616e7366657220746f20746865207a65726f2061646460008301527f72657373000000000000000000000000000000000000000000000000000000006020830152604082019050919050565b6000612206601983612a56565b91507f4552433732313a20617070726f766520746f2063616c6c6572000000000000006000830152602082019050919050565b6000612246602c83612a56565b91507f4552433732313a206f70657261746f7220717565727920666f72206e6f6e657860008301527f697374656e7420746f6b656e00000000000000000000000000000000000000006020830152604082019050919050565b60006122ac603883612a56565b91507f4552433732313a20617070726f76652063616c6c6572206973206e6f74206f7760008301527f6e6572206e6f7220617070726f76656420666f7220616c6c00000000000000006020830152604082019050919050565b6000612312602a83612a56565b91507f4552433732313a2062616c616e636520717565727920666f7220746865207a6560008301527f726f2061646472657373000000000000000000000000000000000000000000006020830152604082019050919050565b6000612378602983612a56565b91507f4552433732313a206f776e657220717565727920666f72206e6f6e657869737460008301527f656e7420746f6b656e00000000000000000000000000000000000000000000006020830152604082019050919050565b60006123de602083612a56565b91507f4552433732313a206d696e7420746f20746865207a65726f20616464726573736000830152602082019050919050565b600061241e602c83612a56565b91507f4552433732313a20617070726f76656420717565727920666f72206e6f6e657860008301527f697374656e7420746f6b656e00000000000000000000000000000000000000006020830152604082019050919050565b6000612484602083612a56565b91507f4f776e61626c653a2063616c6c6572206973206e6f7420746865206f776e65726000830152602082019050919050565b60006124c4602983612a56565b91507f4552433732313a207472616e73666572206f6620746f6b656e2074686174206960008301527f73206e6f74206f776e00000000000000000000000000000000000000000000006020830152604082019050919050565b600061252a602f83612a56565b91507f4552433732314d657461646174613a2055524920717565727920666f72206e6f60008301527f6e6578697374656e7420746f6b656e00000000000000000000000000000000006020830152604082019050919050565b6000612590602183612a56565b91507f4552433732313a20617070726f76616c20746f2063757272656e74206f776e6560008301527f72000000000000000000000000000000000000000000000000000000000000006020830152604082019050919050565b60006125f6603183612a56565b91507f4552433732313a207472616e736665722063616c6c6572206973206e6f74206f60008301527f776e6572206e6f7220617070726f7665640000000000000000000000000000006020830152604082019050919050565b6000602083016000830151848203600086015261266c8282611fe4565b9150508091505092915050565b61268281612b97565b82525050565b60006126948285612056565b91506126a08284612056565b91508190509392505050565b60006020820190506126c16000830184611f8d565b92915050565b60006080820190506126dc6000830187611f8d565b6126e96020830186611f8d565b6126f66040830185612679565b81810360608301526127088184611fab565b905095945050505050565b60006020820190506127286000830184611f9c565b92915050565b60006020820190508181036000830152612748818461201d565b905092915050565b6000602082019050818103600083015261276981612087565b9050919050565b60006020820190508181036000830152612789816120ed565b9050919050565b600060208201905081810360008301526127a981612153565b9050919050565b600060208201905081810360008301526127c981612193565b9050919050565b600060208201905081810360008301526127e9816121f9565b9050919050565b6000602082019050818103600083015261280981612239565b9050919050565b600060208201905081810360008301526128298161229f565b9050919050565b6000602082019050818103600083015261284981612305565b9050919050565b600060208201905081810360008301526128698161236b565b9050919050565b60006020820190508181036000830152612889816123d1565b9050919050565b600060208201905081810360008301526128a981612411565b9050919050565b600060208201905081810360008301526128c981612477565b9050919050565b600060208201905081810360008301526128e9816124b7565b9050919050565b600060208201905081810360008301526129098161251d565b9050919050565b6000602082019050818103600083015261292981612583565b9050919050565b60006020820190508181036000830152612949816125e9565b9050919050565b6000602082019050818103600083015261296a818461264f565b905092915050565b60006020820190506129876000830184612679565b92915050565b6000604051905081810181811067ffffffffffffffff821117156129b4576129b3612d1c565b5b8060405250919050565b600067ffffffffffffffff8211156129d9576129d8612d1c565b5b601f19601f8301169050602081019050919050565b600067ffffffffffffffff821115612a0957612a08612d1c565b5b601f19601f8301169050602081019050919050565b600081519050919050565b600081519050919050565b600082825260208201905092915050565b600082825260208201905092915050565b600082825260208201905092915050565b600081905092915050565b6000612a7d82612b97565b9150612a8883612b97565b9250827fffffffffffffffffffffffffffffffffffffffffffffffffffffffffffffffff03821115612abd57612abc612c8f565b5b828201905092915050565b6000612ad382612b97565b9150612ade83612b97565b925082612aee57612aed612cbe565b5b828204905092915050565b6000612b0482612b97565b9150612b0f83612b97565b925082821015612b2257612b21612c8f565b5b828203905092915050565b6000612b3882612b77565b9050919050565b60008115159050919050565b60007fffffffff0000000000000000000000000000000000000000000000000000000082169050919050565b600073ffffffffffffffffffffffffffffffffffffffff82169050919050565b6000819050919050565b82818337600083830152505050565b60005b83811015612bce578082015181840152602081019050612bb3565b83811115612bdd576000848401525b50505050565b60006002820490506001821680612bfb57607f821691505b60208210811415612c0f57612c0e612ced565b5b50919050565b6000612c2082612b97565b91507fffffffffffffffffffffffffffffffffffffffffffffffffffffffffffffffff821415612c5357612c52612c8f565b5b600182019050919050565b6000612c6982612b97565b9150612c7483612b97565b925082612c8457612c83612cbe565b5b828206905092915050565b7f4e487b7100000000000000000000000000000000000000000000000000000000600052601160045260246000fd5b7f4e487b7100000000000000000000000000000000000000000000000000000000600052601260045260246000fd5b7f4e487b7100000000000000000000000000000000000000000000000000000000600052602260045260246000fd5b7f4e487b7100000000000000000000000000000000000000000000000000000000600052604160045260246000fd5b6000601f19601f8301169050919050565b612d6581612b2d565b8114612d7057600080fd5b50565b612d7c81612b3f565b8114612d8757600080fd5b50565b612d9381612b4b565b8114612d9e57600080fd5b50565b612daa81612b97565b8114612db557600080fd5b5056fea26469706673582212206053bfd9bb638bb87569be2365ce4de698ccf682bbe136f668ef8230813ce87864736f6c63430008000033",
  "immutableReferences": {},
  "source": "pragma solidity 0.8.0;\n\nimport '../node_modules/@openzeppelin/contracts/token/ERC721/ERC721.sol';\nimport '../node_modules/@openzeppelin/contracts/access/Ownable.sol';\n\ncontract ArtToken is ERC721, Ownable {\n    \n    struct Art {\n        string link;        \n    }\n\n    uint256 nextId = 0;\n\n    mapping(uint256 => Art) private _tokenDetails;\n\n    constructor(string memory name, string memory symbol) ERC721(name, symbol){\n\n    }\n\n    function getTokenDetail(uint256 _tokenId) public view returns(Art memory) {\n        return _tokenDetails[_tokenId];\n    }\n\n    function mint(string memory _link) public onlyOwner {\n        _tokenDetails[nextId] = Art(_link);\n        _safeMint(msg.sender, nextId);\n        nextId++;\n    }\n}\n",
  "sourcePath": "/Users/aoikurokawa/Documents/Blockchain/Ethereum/artmarket_contract/contracts/ArtToken.sol",
  "compiler": {
    "name": "solc",
    "version": "0.8.0+commit.c7dfd78e.Emscripten.clang"
  },
  "schemaVersion": "3.4.1",
  "updatedAt": "2021-07-07T04:34:50.674Z",
  "devdoc": {
    "kind": "dev",
    "methods": {
      "approve(address,uint256)": {
        "details": "See {IERC721-approve}."
      },
      "balanceOf(address)": {
        "details": "See {IERC721-balanceOf}."
      },
      "getApproved(uint256)": {
        "details": "See {IERC721-getApproved}."
      },
      "isApprovedForAll(address,address)": {
        "details": "See {IERC721-isApprovedForAll}."
      },
      "name()": {
        "details": "See {IERC721Metadata-name}."
      },
      "owner()": {
        "details": "Returns the address of the current owner."
      },
      "ownerOf(uint256)": {
        "details": "See {IERC721-ownerOf}."
      },
      "renounceOwnership()": {
        "details": "Leaves the contract without owner. It will not be possible to call `onlyOwner` functions anymore. Can only be called by the current owner. NOTE: Renouncing ownership will leave the contract without an owner, thereby removing any functionality that is only available to the owner."
      },
      "safeTransferFrom(address,address,uint256)": {
        "details": "See {IERC721-safeTransferFrom}."
      },
      "safeTransferFrom(address,address,uint256,bytes)": {
        "details": "See {IERC721-safeTransferFrom}."
      },
      "setApprovalForAll(address,bool)": {
        "details": "See {IERC721-setApprovalForAll}."
      },
      "supportsInterface(bytes4)": {
        "details": "See {IERC165-supportsInterface}."
      },
      "symbol()": {
        "details": "See {IERC721Metadata-symbol}."
      },
      "tokenURI(uint256)": {
        "details": "See {IERC721Metadata-tokenURI}."
      },
      "transferFrom(address,address,uint256)": {
        "details": "See {IERC721-transferFrom}."
      },
      "transferOwnership(address)": {
        "details": "Transfers ownership of the contract to a new account (`newOwner`). Can only be called by the current owner."
      }
    },
    "version": 1
  },
  "userdoc": {
    "kind": "user",
    "methods": {},
    "version": 1
  }
}