{
  "contractName": "Auction",
  "abi": [
    {
      "anonymous": false,
      "inputs": [
        {
          "indexed": false,
          "internalType": "address",
          "name": "winner",
          "type": "address"
        },
        {
          "indexed": false,
          "internalType": "uint256",
          "name": "amount",
          "type": "uint256"
        }
      ],
      "name": "AuctionEnded",
      "type": "event"
    },
    {
      "anonymous": false,
      "inputs": [
        {
          "indexed": false,
          "internalType": "address",
          "name": "beneficiary",
          "type": "address"
        },
        {
          "indexed": false,
          "internalType": "uint256",
          "name": "biddingTime",
          "type": "uint256"
        }
      ],
      "name": "AuctionStarted",
      "type": "event"
    },
    {
      "anonymous": false,
      "inputs": [
        {
          "indexed": false,
          "internalType": "address",
          "name": "bidder",
          "type": "address"
        },
        {
          "indexed": false,
          "internalType": "uint256",
          "name": "amount",
          "type": "uint256"
        }
      ],
      "name": "HighestBidIncreased",
      "type": "event"
    },
    {
      "anonymous": false,
      "inputs": [
        {
          "indexed": false,
          "internalType": "address",
          "name": "pender",
          "type": "address"
        },
        {
          "indexed": false,
          "internalType": "uint256",
          "name": "amount",
          "type": "uint256"
        },
        {
          "indexed": false,
          "internalType": "bool",
          "name": "isSuccess",
          "type": "bool"
        }
      ],
      "name": "WithdrawPendingReturns",
      "type": "event"
    },
    {
      "inputs": [
        {
          "internalType": "string",
          "name": "_tokenId",
          "type": "string"
        },
        {
          "internalType": "uint256",
          "name": "_biddingTime",
          "type": "uint256"
        }
      ],
      "name": "auctionStart",
      "outputs": [],
      "stateMutability": "payable",
      "type": "function"
    },
    {
      "inputs": [
        {
          "internalType": "string",
          "name": "_tokenId",
          "type": "string"
        }
      ],
      "name": "getHighestBid",
      "outputs": [
        {
          "internalType": "uint256",
          "name": "",
          "type": "uint256"
        }
      ],
      "stateMutability": "view",
      "type": "function"
    },
    {
      "inputs": [
        {
          "internalType": "string",
          "name": "_tokenId",
          "type": "string"
        }
      ],
      "name": "getAuctionTimeEnd",
      "outputs": [
        {
          "internalType": "uint256",
          "name": "",
          "type": "uint256"
        }
      ],
      "stateMutability": "view",
      "type": "function"
    },
    {
      "inputs": [
        {
          "internalType": "string",
          "name": "_tokenId",
          "type": "string"
        }
      ],
      "name": "bid",
      "outputs": [],
      "stateMutability": "payable",
      "type": "function"
    },
    {
      "inputs": [
        {
          "internalType": "string",
          "name": "_tokenId",
          "type": "string"
        }
      ],
      "name": "withdraw",
      "outputs": [
        {
          "internalType": "bool",
          "name": "",
          "type": "bool"
        }
      ],
      "stateMutability": "nonpayable",
      "type": "function"
    },
    {
      "inputs": [
        {
          "internalType": "string",
          "name": "_tokenId",
          "type": "string"
        }
      ],
      "name": "auctionEnd",
      "outputs": [],
      "stateMutability": "nonpayable",
      "type": "function"
    }
  ],
  "bytecode": "0x608060405234801561001057600080fd5b50611300806100206000396000f3fe6080604052600436106100555760003560e01c80632a9bb8401461005a57806331fb67c21461009757806352852131146100d45780637aef951c146100fd578063b965707214610119578063ef37b6b614610156575b600080fd5b34801561006657600080fd5b50610081600480360381019061007c9190610d33565b610172565b60405161008e91906110c7565b60405180910390f35b3480156100a357600080fd5b506100be60048036038101906100b99190610d33565b61026d565b6040516100cb919061100c565b60405180910390f35b3480156100e057600080fd5b506100fb60048036038101906100f69190610d33565b6104ae565b005b61011760048036038101906101129190610d33565b610744565b005b34801561012557600080fd5b50610140600480360381019061013b9190610d33565b610a67565b60405161014d91906110c7565b60405180910390f35b610170600480360381019061016b9190610d74565b610b62565b005b6000806001836040516101859190610f80565b90815260200160405180910390206040518060800160405290816000820160009054906101000a900473ffffffffffffffffffffffffffffffffffffffff1673ffffffffffffffffffffffffffffffffffffffff1673ffffffffffffffffffffffffffffffffffffffff168152602001600182015481526020016002820160009054906101000a900473ffffffffffffffffffffffffffffffffffffffff1673ffffffffffffffffffffffffffffffffffffffff1673ffffffffffffffffffffffffffffffffffffffff16815260200160038201548152505090508060600151915050919050565b6000806000905060006002846040516102869190610f80565b908152602001604051809103902060003373ffffffffffffffffffffffffffffffffffffffff1673ffffffffffffffffffffffffffffffffffffffff16815260200190815260200160002054905060008111156104675760006002856040516102ef9190610f80565b908152602001604051809103902060003373ffffffffffffffffffffffffffffffffffffffff1673ffffffffffffffffffffffffffffffffffffffff168152602001908152602001600020819055503373ffffffffffffffffffffffffffffffffffffffff166108fc829081150290604051600060405180830381858888f1935050505061041d57806002856040516103889190610f80565b908152602001604051809103902060003373ffffffffffffffffffffffffffffffffffffffff1673ffffffffffffffffffffffffffffffffffffffff168152602001908152602001600020819055507f9b64213c3ffba99e769cc3b96a600e6652bf6da60c5217ae0dd597fd96adcd6633828460405161040a93929190610fd5565b60405180910390a16000925050506104a9565b600191507f9b64213c3ffba99e769cc3b96a600e6652bf6da60c5217ae0dd597fd96adcd6633828460405161045493929190610fd5565b60405180910390a16001925050506104a9565b7f9b64213c3ffba99e769cc3b96a600e6652bf6da60c5217ae0dd597fd96adcd6633828460405161049a93929190610fd5565b60405180910390a16000925050505b919050565b60006001826040516104c09190610f80565b90815260200160405180910390206040518060800160405290816000820160009054906101000a900473ffffffffffffffffffffffffffffffffffffffff1673ffffffffffffffffffffffffffffffffffffffff1673ffffffffffffffffffffffffffffffffffffffff168152602001600182015481526020016002820160009054906101000a900473ffffffffffffffffffffffffffffffffffffffff1673ffffffffffffffffffffffffffffffffffffffff1673ffffffffffffffffffffffffffffffffffffffff168152602001600382015481525050905080602001514210156105e2576040517f08c379a00000000000000000000000000000000000000000000000000000000081526004016105d990611067565b60405180910390fd5b60008054906101000a900460ff1615610630576040517f08c379a000000000000000000000000000000000000000000000000000000000815260040161062790611087565b60405180910390fd5b60016000806101000a81548160ff0219169083151502179055507fdaec4582d5d9595688c8c98545fdd1c696d41c6aeaeb636737e84ed2f5c00eda81604001518260600151604051610683929190610fac565b60405180910390a16000816000015173ffffffffffffffffffffffffffffffffffffffff1682606001516040516106b990610f97565b60006040518083038185875af1925050503d80600081146106f6576040519150601f19603f3d011682016040523d82523d6000602084013e6106fb565b606091505b505090508061073f576040517f08c379a000000000000000000000000000000000000000000000000000000000815260040161073690611027565b60405180910390fd5b505050565b60006001826040516107569190610f80565b90815260200160405180910390206040518060800160405290816000820160009054906101000a900473ffffffffffffffffffffffffffffffffffffffff1673ffffffffffffffffffffffffffffffffffffffff1673ffffffffffffffffffffffffffffffffffffffff168152602001600182015481526020016002820160009054906101000a900473ffffffffffffffffffffffffffffffffffffffff1673ffffffffffffffffffffffffffffffffffffffff1673ffffffffffffffffffffffffffffffffffffffff168152602001600382015481525050905080606001513411610877576040517f08c379a000000000000000000000000000000000000000000000000000000000815260040161086e906110a7565b60405180910390fd5b80602001514211156108be576040517f08c379a00000000000000000000000000000000000000000000000000000000081526004016108b590611047565b60405180910390fd5b60008160600151146109455780606001516002836040516108df9190610f80565b90815260200160405180910390206000836040015173ffffffffffffffffffffffffffffffffffffffff1673ffffffffffffffffffffffffffffffffffffffff168152602001908152602001600020600082825461093d9190611175565b925050819055505b60006040518060800160405280836000015173ffffffffffffffffffffffffffffffffffffffff168152602001836020015181526020013373ffffffffffffffffffffffffffffffffffffffff168152602001348152509050806001846040516109af9190610f80565b908152602001604051809103902060008201518160000160006101000a81548173ffffffffffffffffffffffffffffffffffffffff021916908373ffffffffffffffffffffffffffffffffffffffff1602179055506020820151816001015560408201518160020160006101000a81548173ffffffffffffffffffffffffffffffffffffffff021916908373ffffffffffffffffffffffffffffffffffffffff16021790555060608201518160030155905050505050565b600080600183604051610a7a9190610f80565b90815260200160405180910390206040518060800160405290816000820160009054906101000a900473ffffffffffffffffffffffffffffffffffffffff1673ffffffffffffffffffffffffffffffffffffffff1673ffffffffffffffffffffffffffffffffffffffff168152602001600182015481526020016002820160009054906101000a900473ffffffffffffffffffffffffffffffffffffffff1673ffffffffffffffffffffffffffffffffffffffff1673ffffffffffffffffffffffffffffffffffffffff16815260200160038201548152505090508060200151915050919050565b600060405180608001604052803373ffffffffffffffffffffffffffffffffffffffff1681526020018381526020013373ffffffffffffffffffffffffffffffffffffffff1681526020016000815250905080600184604051610bc59190610f80565b908152602001604051809103902060008201518160000160006101000a81548173ffffffffffffffffffffffffffffffffffffffff021916908373ffffffffffffffffffffffffffffffffffffffff1602179055506020820151816001015560408201518160020160006101000a81548173ffffffffffffffffffffffffffffffffffffffff021916908373ffffffffffffffffffffffffffffffffffffffff160217905550606082015181600301559050507fc087c4cdb16906b5ff7016a6bf927618f24ff32eb1de5e86eeaeb08b94831a683383604051610ca9929190610fac565b60405180910390a1505050565b6000610cc9610cc484611113565b6110e2565b905082815260208101848484011115610ce157600080fd5b610cec848285611213565b509392505050565b600082601f830112610d0557600080fd5b8135610d15848260208601610cb6565b91505092915050565b600081359050610d2d816112b3565b92915050565b600060208284031215610d4557600080fd5b600082013567ffffffffffffffff811115610d5f57600080fd5b610d6b84828501610cf4565b91505092915050565b60008060408385031215610d8757600080fd5b600083013567ffffffffffffffff811115610da157600080fd5b610dad85828601610cf4565b9250506020610dbe85828601610d1e565b9150509250929050565b610dd1816111cb565b82525050565b610de0816111dd565b82525050565b6000610df182611143565b610dfb818561116a565b9350610e0b818560208601611222565b80840191505092915050565b6000610e24600f83611159565b91507f5472616e73666572206661696c656400000000000000000000000000000000006000830152602082019050919050565b6000610e64601583611159565b91507f41756374696f6e20616c726561647920656e64656400000000000000000000006000830152602082019050919050565b6000610ea4601b83611159565b91507f61756374696f6e206973207374696c6c2070726f63657373696e6700000000006000830152602082019050919050565b6000610ee4601c83611159565b91507f41756374696f6e20686173206e6f742066696e697368656420796574000000006000830152602082019050919050565b6000610f24602083611159565b91507f56616c7565206973206c657373207468616e20686967686573742076616c75656000830152602082019050919050565b6000610f6460008361114e565b9150600082019050919050565b610f7a81611209565b82525050565b6000610f8c8284610de6565b915081905092915050565b6000610fa282610f57565b9150819050919050565b6000604082019050610fc16000830185610dc8565b610fce6020830184610f71565b9392505050565b6000606082019050610fea6000830186610dc8565b610ff76020830185610f71565b6110046040830184610dd7565b949350505050565b60006020820190506110216000830184610dd7565b92915050565b6000602082019050818103600083015261104081610e17565b9050919050565b6000602082019050818103600083015261106081610e57565b9050919050565b6000602082019050818103600083015261108081610e97565b9050919050565b600060208201905081810360008301526110a081610ed7565b9050919050565b600060208201905081810360008301526110c081610f17565b9050919050565b60006020820190506110dc6000830184610f71565b92915050565b6000604051905081810181811067ffffffffffffffff8211171561110957611108611284565b5b8060405250919050565b600067ffffffffffffffff82111561112e5761112d611284565b5b601f19601f8301169050602081019050919050565b600081519050919050565b600081905092915050565b600082825260208201905092915050565b600081905092915050565b600061118082611209565b915061118b83611209565b9250827fffffffffffffffffffffffffffffffffffffffffffffffffffffffffffffffff038211156111c0576111bf611255565b5b828201905092915050565b60006111d6826111e9565b9050919050565b60008115159050919050565b600073ffffffffffffffffffffffffffffffffffffffff82169050919050565b6000819050919050565b82818337600083830152505050565b60005b83811015611240578082015181840152602081019050611225565b8381111561124f576000848401525b50505050565b7f4e487b7100000000000000000000000000000000000000000000000000000000600052601160045260246000fd5b7f4e487b7100000000000000000000000000000000000000000000000000000000600052604160045260246000fd5b6112bc81611209565b81146112c757600080fd5b5056fea2646970667358221220e05b04d979ab3a66aeb6f9148cd6e8467e2bb2081a50361f46343b4c48e3d00e64736f6c63430008000033",
  "immutableReferences": {},
  "source": "//SPDX-License-Identifier: UNLICENSED\npragma solidity 0.8.0;\n\ncontract Auction {\n    bool ended;\n\n    struct AuctionDetail {\n        address payable beneficiary;\n        uint256 auctionTimeEnd;\n        address highestBidder;\n        uint256 highestBid;\n    }\n\n    mapping(string => AuctionDetail) tokenBuyerDetails;\n    mapping(string => mapping(address => uint256)) pendingReturns;\n\n    event AuctionStarted(address beneficiary, uint256 biddingTime);\n    event HighestBidIncreased(address bidder, uint256 amount);\n    event AuctionEnded(address winner, uint256 amount);\n    event WithdrawPendingReturns(\n        address pender,\n        uint256 amount,\n        bool isSuccess\n    );\n\n    function auctionStart(string memory _tokenId, uint256 _biddingTime)\n        public\n        payable\n    {\n        // require(_tokenId != \"\", \"Token should not be empty\");\n        AuctionDetail memory auctionDetail = AuctionDetail({\n            beneficiary: payable(msg.sender),\n            auctionTimeEnd: _biddingTime,\n            highestBidder: msg.sender,\n            highestBid: 0\n        });\n        tokenBuyerDetails[_tokenId] = auctionDetail;\n\n        emit AuctionStarted(msg.sender, _biddingTime);\n    }\n\n    function getHighestBid(string memory _tokenId) public view returns (uint256) {\n        AuctionDetail memory auctionDetail = tokenBuyerDetails[_tokenId];\n        return auctionDetail.highestBid;\n    }\n\n    function getAuctionTimeEnd(string memory _tokenId) public view returns (uint256) {\n        AuctionDetail memory auctionDetail = tokenBuyerDetails[_tokenId];\n        return auctionDetail.auctionTimeEnd;\n    }\n\n    function bid(string memory _tokenId) public payable {\n        AuctionDetail memory existAuctionDetail = tokenBuyerDetails[_tokenId];\n\n        require(\n            msg.value > existAuctionDetail.highestBid,\n            \"Value is less than highest value\"\n        );\n        require(\n            block.timestamp <= existAuctionDetail.auctionTimeEnd,\n            \"Auction already ended\"\n        );\n\n        if (existAuctionDetail.highestBid != 0) {\n            pendingReturns[_tokenId][\n                existAuctionDetail.highestBidder\n            ] += existAuctionDetail.highestBid;\n        }\n\n        AuctionDetail memory newAuctionDetail = AuctionDetail(\n            existAuctionDetail.beneficiary,\n            existAuctionDetail.auctionTimeEnd,\n            msg.sender,\n            msg.value\n        );\n        tokenBuyerDetails[_tokenId] = newAuctionDetail;\n    }\n\n    function withdraw(string memory _tokenId) public returns (bool) {\n        bool isSuccess = false;\n        uint256 amount = pendingReturns[_tokenId][msg.sender];\n        if (amount > 0) {\n            pendingReturns[_tokenId][msg.sender] = 0;\n\n            if (!payable(msg.sender).send(amount)) {\n                pendingReturns[_tokenId][msg.sender] = amount;\n                emit WithdrawPendingReturns(msg.sender, amount, isSuccess);\n                return false;\n            } else {\n                isSuccess = true;\n                emit WithdrawPendingReturns(msg.sender, amount, isSuccess);\n                return true;\n            }\n        } else {\n            emit WithdrawPendingReturns(msg.sender, amount, isSuccess);\n            return false;\n        }\n    }\n\n    function auctionEnd(string memory _tokenId) public {\n        AuctionDetail memory existAuctionDetail = tokenBuyerDetails[_tokenId];\n\n        require(\n            block.timestamp >= existAuctionDetail.auctionTimeEnd,\n            \"auction is still processing\"\n        );\n        require(!ended, \"Auction has not finished yet\");\n\n        ended = true;\n        emit AuctionEnded(\n            existAuctionDetail.highestBidder,\n            existAuctionDetail.highestBid\n        );\n\n        (bool success, ) = existAuctionDetail.beneficiary.call{\n            value: existAuctionDetail.highestBid\n        }(\"\");  \n        require(success, \"Transfer failed\");\n        // beneficiary.transfer(highestBid);\n    }\n}",
  "sourcePath": "/Users/aoikurokawa/Documents/Blockchain/Ethereum/artmarket_contract/contracts/Auction.sol",
  "compiler": {
    "name": "solc",
    "version": "0.8.0+commit.c7dfd78e.Emscripten.clang"
  },
  "schemaVersion": "3.4.1",
  "updatedAt": "2021-07-07T04:34:50.687Z",
  "devdoc": {
    "kind": "dev",
    "methods": {},
    "version": 1
  },
  "userdoc": {
    "kind": "user",
    "methods": {},
    "version": 1
  }
}