{
  "contractName": "Crowdfunding",
  "abi": [
    {
      "anonymous": false,
      "inputs": [
        {
          "indexed": false,
          "internalType": "address",
          "name": "publisher",
          "type": "address"
        }
      ],
      "name": "CrowdfundingEnded",
      "type": "event"
    },
    {
      "anonymous": false,
      "inputs": [
        {
          "indexed": false,
          "internalType": "address",
          "name": "publisher",
          "type": "address"
        },
        {
          "indexed": false,
          "internalType": "uint256",
          "name": "currentAmount",
          "type": "uint256"
        },
        {
          "indexed": false,
          "internalType": "bool",
          "name": "isSucceed",
          "type": "bool"
        }
      ],
      "name": "CrowdfundingFailed",
      "type": "event"
    },
    {
      "anonymous": false,
      "inputs": [
        {
          "indexed": false,
          "internalType": "address",
          "name": "publisher",
          "type": "address"
        },
        {
          "indexed": false,
          "internalType": "uint256",
          "name": "goalAmount",
          "type": "uint256"
        }
      ],
      "name": "CrowdfundingStarted",
      "type": "event"
    },
    {
      "anonymous": false,
      "inputs": [
        {
          "indexed": false,
          "internalType": "address",
          "name": "publisher",
          "type": "address"
        },
        {
          "indexed": false,
          "internalType": "uint256",
          "name": "achivedAmount",
          "type": "uint256"
        },
        {
          "indexed": false,
          "internalType": "bool",
          "name": "isSucceed",
          "type": "bool"
        }
      ],
      "name": "CrowdfundingSucceed",
      "type": "event"
    },
    {
      "inputs": [
        {
          "internalType": "uint256",
          "name": "_goalAmount",
          "type": "uint256"
        },
        {
          "internalType": "uint256",
          "name": "_endTime",
          "type": "uint256"
        }
      ],
      "name": "startCrowdfunding",
      "outputs": [],
      "stateMutability": "nonpayable",
      "type": "function"
    },
    {
      "inputs": [
        {
          "internalType": "uint256",
          "name": "_id",
          "type": "uint256"
        }
      ],
      "name": "getCrowdFunding",
      "outputs": [
        {
          "components": [
            {
              "internalType": "uint256",
              "name": "id",
              "type": "uint256"
            },
            {
              "internalType": "address payable",
              "name": "publisher",
              "type": "address"
            },
            {
              "internalType": "uint256",
              "name": "goalAmount",
              "type": "uint256"
            },
            {
              "internalType": "uint256",
              "name": "endTime",
              "type": "uint256"
            },
            {
              "internalType": "uint256",
              "name": "currentAmount",
              "type": "uint256"
            },
            {
              "internalType": "uint256",
              "name": "numberOfSupporter",
              "type": "uint256"
            }
          ],
          "internalType": "struct Crowdfunding.CrowdFundingDetail",
          "name": "",
          "type": "tuple"
        }
      ],
      "stateMutability": "view",
      "type": "function"
    },
    {
      "inputs": [
        {
          "internalType": "uint256",
          "name": "_id",
          "type": "uint256"
        }
      ],
      "name": "support",
      "outputs": [],
      "stateMutability": "payable",
      "type": "function"
    },
    {
      "inputs": [
        {
          "internalType": "uint256",
          "name": "_id",
          "type": "uint256"
        }
      ],
      "name": "endCrowdfunding",
      "outputs": [],
      "stateMutability": "nonpayable",
      "type": "function"
    }
  ],
  "bytecode": "0x60806040526000805534801561001457600080fd5b50610e16806100246000396000f3fe60806040526004361061003f5760003560e01c806315c3f2291461004457806356c9493f14610081578063f10650111461009d578063fbd36f5f146100c6575b600080fd5b34801561005057600080fd5b5061006b6004803603810190610066919061084a565b6100ef565b6040516100789190610c3f565b60405180910390f35b61009b6004803603810190610096919061084a565b6101a4565b005b3480156100a957600080fd5b506100c460048036038101906100bf919061084a565b61039a565b005b3480156100d257600080fd5b506100ed60048036038101906100e89190610873565b610633565b005b6100f76107e9565b600160008381526020019081526020016000206040518060c0016040529081600082015481526020016001820160009054906101000a900473ffffffffffffffffffffffffffffffffffffffff1673ffffffffffffffffffffffffffffffffffffffff1673ffffffffffffffffffffffffffffffffffffffff1681526020016002820154815260200160038201548152602001600482015481526020016005820154815250509050919050565b600034116101e7576040517f08c379a00000000000000000000000000000000000000000000000000000000081526004016101de90610bff565b60405180910390fd5b6000600160008381526020019081526020016000206040518060c0016040529081600082015481526020016001820160009054906101000a900473ffffffffffffffffffffffffffffffffffffffff1673ffffffffffffffffffffffffffffffffffffffff1673ffffffffffffffffffffffffffffffffffffffff1681526020016002820154815260200160038201548152602001600482015481526020016005820154815250509050428160600151116102d7576040517f08c379a00000000000000000000000000000000000000000000000000000000081526004016102ce90610bbf565b60405180910390fd5b34816080018181516102e99190610c6b565b915081815250508060a001805180919061030290610d51565b8152505080600160008481526020019081526020016000206000820151816000015560208201518160010160006101000a81548173ffffffffffffffffffffffffffffffffffffffff021916908373ffffffffffffffffffffffffffffffffffffffff16021790555060408201518160020155606082015181600301556080820151816004015560a082015181600501559050505050565b6000600160008381526020019081526020016000206040518060c0016040529081600082015481526020016001820160009054906101000a900473ffffffffffffffffffffffffffffffffffffffff1673ffffffffffffffffffffffffffffffffffffffff1673ffffffffffffffffffffffffffffffffffffffff16815260200160028201548152602001600382015481526020016004820154815260200160058201548152505090503373ffffffffffffffffffffffffffffffffffffffff16816020015173ffffffffffffffffffffffffffffffffffffffff16146104b6576040517f08c379a00000000000000000000000000000000000000000000000000000000081526004016104ad90610b7f565b60405180910390fd5b42816060015111156104fd576040517f08c379a00000000000000000000000000000000000000000000000000000000081526004016104f490610b9f565b60405180910390fd5b7fbc852c5dcdc6da24cb5da11d23a28a332251b8168fdd720ad854f68abad5f5cf81602001516040516105309190610b04565b60405180910390a18060800151816040015110156105e057806020015173ffffffffffffffffffffffffffffffffffffffff166108fc82608001519081150290604051600060405180830381858888f19350505050158015610596573d6000803e3d6000fd5b507fc5d362b7e4b4e7f556855671d90aef2583a9011ad63e2a624390faf0d551ce148160200151826080015160016040516105d393929190610b1f565b60405180910390a1610625565b7f9fa1c696ab3842bee1c53befbbd4176928fc59143d4ef84ae0f1b409a11a84b181602001518260800151600060405161061c93929190610b1f565b60405180910390a15b61062d6107e9565b90505050565b60008211610676576040517f08c379a000000000000000000000000000000000000000000000000000000000815260040161066d90610c1f565b60405180910390fd5b4281116106b8576040517f08c379a00000000000000000000000000000000000000000000000000000000081526004016106af90610bdf565b60405180910390fd5b60006040518060c0016040528060005481526020013373ffffffffffffffffffffffffffffffffffffffff16815260200184815260200183815260200160008152602001600081525090508060016000805481526020019081526020016000206000820151816000015560208201518160010160006101000a81548173ffffffffffffffffffffffffffffffffffffffff021916908373ffffffffffffffffffffffffffffffffffffffff16021790555060408201518160020155606082015181600301556080820151816004015560a082015181600501559050507f9c388511367e832165e0eab0683dddc8840794a1e15cdbe2170663a9414d095d33846040516107c5929190610b56565b60405180910390a16000808154809291906107df90610d51565b9190505550505050565b6040518060c0016040528060008152602001600073ffffffffffffffffffffffffffffffffffffffff168152602001600081526020016000815260200160008152602001600081525090565b60008135905061084481610dc9565b92915050565b60006020828403121561085c57600080fd5b600061086a84828501610835565b91505092915050565b6000806040838503121561088657600080fd5b600061089485828601610835565b92505060206108a585828601610835565b9150509250929050565b6108b881610d1b565b82525050565b6108c781610cd3565b82525050565b6108d681610cc1565b82525050565b6108e581610ce5565b82525050565b60006108f8600f83610c5a565b91507f596f752063616e206e6f7420656e6400000000000000000000000000000000006000830152602082019050919050565b6000610938601683610c5a565b91507f43726f776466756e64696e672070726f636573736564000000000000000000006000830152602082019050919050565b6000610978601d83610c5a565b91507f43726f776466756e64696e6720616c72656164792066696e69736865640000006000830152602082019050919050565b60006109b8601a83610c5a565b91507f43726f776466756e64696e6720616c726561647920656e6465640000000000006000830152602082019050919050565b60006109f8601c83610c5a565b91507f416d6f756e742073686f756c64206265206d6f7265207468616e2030000000006000830152602082019050919050565b6000610a38601c83610c5a565b91507f416d6f756e742073686f756c64206265206d6f7265207468616e206f000000006000830152602082019050919050565b60c082016000820151610a816000850182610ae6565b506020820151610a9460208501826108be565b506040820151610aa76040850182610ae6565b506060820151610aba6060850182610ae6565b506080820151610acd6080850182610ae6565b5060a0820151610ae060a0850182610ae6565b50505050565b610aef81610d11565b82525050565b610afe81610d11565b82525050565b6000602082019050610b1960008301846108af565b92915050565b6000606082019050610b3460008301866108af565b610b416020830185610af5565b610b4e60408301846108dc565b949350505050565b6000604082019050610b6b60008301856108cd565b610b786020830184610af5565b9392505050565b60006020820190508181036000830152610b98816108eb565b9050919050565b60006020820190508181036000830152610bb88161092b565b9050919050565b60006020820190508181036000830152610bd88161096b565b9050919050565b60006020820190508181036000830152610bf8816109ab565b9050919050565b60006020820190508181036000830152610c18816109eb565b9050919050565b60006020820190508181036000830152610c3881610a2b565b9050919050565b600060c082019050610c546000830184610a6b565b92915050565b600082825260208201905092915050565b6000610c7682610d11565b9150610c8183610d11565b9250827fffffffffffffffffffffffffffffffffffffffffffffffffffffffffffffffff03821115610cb657610cb5610d9a565b5b828201905092915050565b6000610ccc82610cf1565b9050919050565b6000610cde82610cf1565b9050919050565b60008115159050919050565b600073ffffffffffffffffffffffffffffffffffffffff82169050919050565b6000819050919050565b6000610d2682610d2d565b9050919050565b6000610d3882610d3f565b9050919050565b6000610d4a82610cf1565b9050919050565b6000610d5c82610d11565b91507fffffffffffffffffffffffffffffffffffffffffffffffffffffffffffffffff821415610d8f57610d8e610d9a565b5b600182019050919050565b7f4e487b7100000000000000000000000000000000000000000000000000000000600052601160045260246000fd5b610dd281610d11565b8114610ddd57600080fd5b5056fea26469706673582212208db1f0982ca8da8410238bb29a55f5bb23119f114a604cc2565a9728a489f6a364736f6c63430008000033",
  "immutableReferences": {},
  "source": "//SPDX-License-Identifier: UNLICENSED\npragma solidity 0.8.0;\n\ncontract Crowdfunding {\n    uint256 id = 0;\n\n    struct CrowdFundingDetail {\n        uint256 id;\n        address payable publisher;\n        uint256 goalAmount;\n        uint256 endTime;\n        uint256 currentAmount;\n        uint256 numberOfSupporter;\n    }\n\n    //id => crowdfundingdetail\n    mapping(uint256 => CrowdFundingDetail) crowdfundingDetail;\n\n    event CrowdfundingStarted(address publisher, uint256 goalAmount);\n    event CrowdfundingEnded(address publisher);\n    event CrowdfundingSucceed(\n        address publisher,\n        uint256 achivedAmount,\n        bool isSucceed\n    );\n    event CrowdfundingFailed(\n        address publisher,\n        uint256 currentAmount,\n        bool isSucceed\n    );\n\n    function startCrowdfunding(uint256 _goalAmount, uint256 _endTime) public {\n        require(_goalAmount > 0, \"Amount should be more than o\");\n        require(_endTime > block.timestamp, \"Crowdfunding already ended\");\n\n        CrowdFundingDetail memory newCrowdFunding = CrowdFundingDetail({\n            id: id,\n            publisher: payable(msg.sender),\n            goalAmount: _goalAmount,\n            endTime: _endTime,\n            currentAmount: 0,\n            numberOfSupporter: 0\n        });\n\n        crowdfundingDetail[id] = newCrowdFunding;\n\n        emit CrowdfundingStarted(msg.sender, _goalAmount);\n\n        id++;\n    }\n\n    function getCrowdFunding(uint256 _id)\n        public\n        view\n        returns (CrowdFundingDetail memory)\n    {\n        return crowdfundingDetail[_id];\n    }\n\n    function support(uint256 _id) public payable {\n        require(msg.value > 0, \"Amount should be more than 0\");\n\n        CrowdFundingDetail memory existCrowdFunding = crowdfundingDetail[_id];\n        require(\n            existCrowdFunding.endTime > block.timestamp,\n            \"Crowdfunding already finished\"\n        );\n\n        existCrowdFunding.currentAmount += msg.value;\n        existCrowdFunding.numberOfSupporter++;\n\n        crowdfundingDetail[_id] = existCrowdFunding;\n    }\n\n    function endCrowdfunding(uint256 _id) public {\n        CrowdFundingDetail memory existCrowdFunding = crowdfundingDetail[_id];\n        require(existCrowdFunding.publisher == msg.sender, \"You can not end\");\n        require(\n            existCrowdFunding.endTime <= block.timestamp,\n            \"Crowdfunding processed\"\n        );\n        emit CrowdfundingEnded(existCrowdFunding.publisher);\n\n        if (existCrowdFunding.goalAmount < existCrowdFunding.currentAmount) {\n            existCrowdFunding.publisher.transfer(\n                existCrowdFunding.currentAmount\n            );\n            emit CrowdfundingSucceed(\n                existCrowdFunding.publisher,\n                existCrowdFunding.currentAmount,\n                true\n            );\n        } else {\n            emit CrowdfundingFailed(\n                existCrowdFunding.publisher,\n                existCrowdFunding.currentAmount,\n                false\n            );\n        }\n\n        delete existCrowdFunding;\n    }\n}\n",
  "sourcePath": "/Users/aoikurokawa/Documents/Blockchain/Ethereum/artmarket_contract/contracts/Crowdfunding.sol",
  "compiler": {
    "name": "solc",
    "version": "0.8.0+commit.c7dfd78e.Emscripten.clang"
  },
  "schemaVersion": "3.4.1",
  "updatedAt": "2021-07-07T04:34:50.691Z",
  "devdoc": {
    "kind": "dev",
    "methods": {},
    "version": 1
  },
  "userdoc": {
    "kind": "user",
    "methods": {},
    "version": 1
  }
}